:04330000D5EF19F0FC
:0E3308004582FACF24F0FBCF25F0C3EF1DF075
:103318004580D8CF32F0E8CF33F0E0CF34F0FACFA1
:1033280035F0FBCF36F0E9CF37F0EACF38F0E1CF10
:1033380039F0E2CF3AF0D9CF3BF0DACF3CF0F3CF17
:103348003DF0F4CF3EF0F6CF3FF0F7CF40F0F8CFA6
:1033580041F0F5CF42F08CEF15F042C0F5FF41C0C7
:10336800F8FF40C0F7FF3FC0F6FF3EC0F4FF3DC086
:10337800F3FF3CC0DAFF3BC0D9FF3AC0E2FF39C0D7
:10338800E1FF38C0EAFF37C0E9FF36C0FBFF35C0B0
:10339800FAFF34C0E0FF33C0E8FF32C0D8FF4590E1
:1033A80010001FEF1FF07DEC1EF060C081F061C0BF
:1033B80082F062C083F063C084F07DEC1EF060C0D0
:1033C80085F061C086F062C087F063C088F00F0E98
:1033D8000001926F080E086E000E0001956F000E36
:1033E800076EC7EC1FF0CAEC1FF00001936F000EC8
:1033F8000001806F000E0001896F000E8A6F000EB9
:103408008B6F000E8C6F000E00018D6F000E8E6F9B
:10341800000E8F6F000E906FC00E00016E6F120EBF
:103428006F6F000E706F000E716F90EC1BF000094B
:10343800D8A409D0000E0001606F010E0001616F71
:10344800000E04EC1EF07DEC1EF00001605100013E
:10345800815D000161510001825900016251000142
:1034680083590001635100018459D8B093D07DEC91
:103478001EF0E80E000160250001816F030E0001B7
:1034880061210001826F000E000162210001836F3B
:10349800000E000163210001846F0F0E0001606FB0
:1034A80095C061F0000E04EC1EF00F0E0001606F75
:1034B80095C061F0010E04EC1EF00E0E0001606F65
:1034C80095C061F0000E04EC1EF00E0E0001606F56
:1034D80095C061F0010E04EC1EF00001A151D8B4B2
:1034E80004D000019529010B01D0010E0001956F50
:1034F80000019207000192AF11D0A10E0001606F88
:10350800000E0001616FA4EC1FF000019F51D8B4B8
:1035180002D0070E01D00F0E0001926F00019351E7
:103528000001606F616B626B636B000EB6EC1EF09E
:10353800000E0001916F00018C5100018B110001F8
:103548008A1105E1290E0001895DD8A00FD000017C
:10355800905100018F1100018E1105E1290E000123
:103568008D5DD8A003D0010E0001916F91C0A0F02D
:10357800000E0001606F000E0001616F000E04EC88
:103588001EF0000E0001606F000E0001616F010E59
:1035980004EC1EF0CAEC1FF00001936FC3EC1FF09F
:1035A8000009D8B49FD0BFEC1FF00001946F690EDA
:1035B80000019419D8B405D0680E00019419D8A454
:1035C80091D0000E0001606F010E0001616F010EC5
:1035D80004EC1EF07DEC1EF0C80E000185250001EC
:1035E8007C6F000E0001862100017D6F000E000136
:1035F800872100017E6F000E0001882100017F6F86
:103608000001605100017C5D0001615100017D599C
:103618000001625100017E590001635100017F5988
:10362800D8B060D0A10E0001606F000E0001616F7C
:1036380090EC1FF0010E00018D27000E8E238F23C2
:103648009023000193510001606F616B626B636BA3
:10365800690E00019419D8A402D0010E01D0000E01
:10366800B6EC1EF03FD0D0EC1FF01200080E00019F
:10367800606F000E0001616F90EC1FF044D0080EDF
:103688000001606F000E0001616FA4EC1FF03BD0D9
:103698000001A151D8B437D000019F51D8B404D04B
:1036A800690EB8EC1FF003D0680EB8EC1FF07DEC83
:1036B8001EF060C085F061C086F062C087F063C00C
:1036C80088F0010E00018927000E8A238B238C23A2
:1036D800000E0001606F010E0001616F000E04EC26
:1036E8001EF011D005EC1FF0010AD8B4BFD7030AA9
:1036F800D8B409D0010AD8B4CBD7070AD8B4BFD7F1
:10370800010AD8B4B0D7A1C067F09FC068F0000123
:10371800A05138EC1FF097D66EC072F06FC073F0EE
:1037280070C074F071C075F0060ED8900001723741
:10373800733774377537E82EF8D70001721F731F77
:10374800741F751F722B000E732374237523000ECC
:10375800000172250001606F6C0E000173210001E9
:10376800616FDC0E000174210001626F020E00011E
:1037780075210001636F6EC076F06FC077F070C07E
:1037880078F071C079F0060ED89000017637773757
:1037980078377937E82EF8D776C064F077C065F0C7
:1037A80078C066F079C067F041EC1CF060C07AF030
:1037B80061C07BF000017B05D8A04FD06EC072F0CD
:1037C8006FC073F070C074F071C075F0040ED890BB
:1037D80000017237733774377537E82EF8D7000150
:1037E800721F731F741F751F722B000E73237423AF
:1037F8007523000E000172250001606F6C0E000138
:1038080073210001616FDC0E000174210001626FF9
:10381800020E000175210001636F6EC076F06FC063
:1038280077F070C078F071C079F0040ED89000017C
:103838007637773778377937E82EF8D776C064F057
:1038480077C065F078C066F079C067F041EC1CF08D
:1038580060C07AF061C07BF0AC8400017B05D8B011
:103868000AD07AC0AFFFAC98AB8E948E948CAB889C
:10387800AC8A010E1200000E1200000E0001696FE2
:10388800000167AF0CD00001671F661F651F646DDC
:10389800000E652366236723010E0001696F00018E
:1038A80063AF0CD00001631F621F611F606D000EC3
:1038B800612362236323010E0001691B000E0001CE
:1038C8006A6F000E6B6F000E6C6F000E6D6F00015B
:1038D8006451000165110001661100016711D8B437
:1038E80042D0010E0001686F08D00001D8906437FB
:1038F8006537663767370001682B000167AFF5D772
:103908000001D8906A376B376C376D370001645106
:103918000001605D000165510001615900016651B7
:10392800000162590001675100016359D8A012D003
:10393800000164510001605F000165510001615B95
:10394800000166510001625B000167510001635B81
:1039580000016A810001D8906733663365336433A8
:103968000001682FCDD7000169510001D8B409D0F2
:1039780000016D1F6C1F6B1F6A6D000E6B236C239B
:103988006D236AC060F06BC061F06CC062F06DC0FE
:1039980063F01200040E0001606F00016051010D18
:1039A800000EF324D96E070EF420DA6E300EDF1203
:1039B8000001602B00016051010D000EF324D96E47
:1039C800070EF420DA6E300EDF120001602B0001C2
:1039D8006051010D000EF324D96E070EF420DA6E43
:1039E800FC0EDF120001602B00016051010D000E7A
:1039F800F324D96E070EF420DA6EFC0EDF120001F4
:103A0800602B00016051010D000EF324D96E070EE2
:103A1800F420DA6E300EDF120001602B00016051D5
:103A2800010D000EF324D96E070EF420DA6E300E65
:103A3800DF120001602B1200040E0001606F00010C
:103A48006051010D000EF324D96E070EF420DA6ED2
:103A5800840EDF120001602B00016051010D000E81
:103A6800F324D96E070EF420DA6E480EDF12000137
:103A7800602B00016051010D000EF324D96E070E72
:103A8800F420DA6E300EDF120001602B0001605165
:103A9800010D000EF324D96E070EF420DA6E300EF5
:103AA800DF120001602B00016051010D000EF324AC
:103AB800D96E070EF420DA6E480EDF120001602B73
:103AC80000016051010D000EF324D96E070EF42099
:103AD800DA6E840EDF120001602B12000001656FA0
:103AE800100E0001656503D0100E0001656F000E11
:103AF8000001666F0DD000016651010D000EF32420
:103B0800D96E070EF420DA6EFE0EDF160001662B62
:103B1800000165510001606F616B0001601F611F4A
:103B2800604B612B100E00016027000E612300011D
:103B380066510001626F636B000160510001625DB4
:103B480000016351800A0001646F00016151800A1D
:103B580000016459D8A0CFD70F0E0001666501D0C7
:103B6800120000016651010D000EF324D96E070EF4
:103B7800F420DA6E000EDB800001662BEDD7E9CF6A
:103B880026F0EACF27F0E1CF28F0E2CF29F0D9CF0D
:103B98002AF0DACF2BF0F3CF2CF0F4CF2DF0F6CFBC
:103BA8002EF0F7CF2FF0F8CF30F0F5CF31F0F2A4A8
:103BB80007D0010E00019B27000E9C239D239E2306
:103BC80084EF15F031C0F5FF30C0F8FF2FC0F7FFC4
:103BD8002EC0F6FF2DC0F4FF2CC0F3FF2BC0DAFF78
:103BE8002AC0D9FF29C0E2FF28C0E1FF27C0EAFFA9
:103BF80026C0E9FF25C0FBFF24C0FAFF459211004B
:103C08000001646F0001645100080001626F070E33
:103C180000016227010E0001636F0001622B03D0CF
:103C28000001D89063370001622FFAD70001635171
:103C38000001656F00016105D8A40DD00001605135
:103C4800010D000EF324D96E070EF420DA6E000180
:103C58006551DF12120000016551FF0A0001626F11
:103C680000016051010D000EF324D96E070EF420F7
:103C7800DA6E00016251DF161200000E0001656F56
:103C8800000E646F0001625100016311D8B42CD09A
:103C9800010E0001666F06D00001D89062376337C5
:103CA8000001662B000163AFF7D70001D890643795
:103CB8006537000162510001605D00016351000138
:103CC8006159D8A00AD0000162510001605F00016B
:103CD80063510001615B000164810001D890633386
:103CE80062330001662FE1D764C060F065C061F0FF
:103CF80012009BC064F09CC065F09DC066F09EC039
:103D080067F0030E06D00001D89067336633653339
:103D18006433E82EF8D79BC068F09CC069F09DC05A
:103D28006AF09EC06BF00001D8906B336A33693338
:103D3800683300016451000168250001606F0001CB
:103D48006551000169210001616F000166510001A0
:103D58006A210001626F0001675100016B210001B7
:103D6800636F12000001646F000164510001D8B450
:103D7800120000016351000162110001611105E1A7
:103D8800F40E0001605DD8A004D00001A051D8B4A1
:103D980010D000016351000162110001611105E1B9
:103DA800FA0E0001605DD8A012000001A005D8A499
:103DB8001200010E00019F6F120067C060F068C01A
:103DC80061F0000E0001636F0A0E626F41EC1EF095
:103DD80060C067F061C068F00DD09C0E0001696F8B
:103DE800D70EE82EFED7692FFCD700F00001670731
:103DF800D8A068070001675100016811D8B4120003
:103E0800ECD700C060F0000E006E000160A302D085
:103E1800010E1200000160A902D0040E1200000178
:103E280060A502D0020E1200000160A702D0030EA6
:103E38001200000E1200A20EF66E3F0EF76E000E74
:103E4800F86E0900F5CFA1F00001A06B9F6B9E6B87
:103E58009D6B9C6B9B6B446A436A45904592000E30
:103E6800F86E00017BEF1FF00001696F65EC1FF031
:103E7800000169510001D8A4CEEC1CF00001685182
:103E88000001D8A420EC1DF00001675172EC1DF070
:103E9800CFEC1FF01200000E0001606F0F0E000142
:103EA800606501D0120000016051010D000EF3247D
:103EB800D96E070EF420DA6E000EDF6E0001602B5B
:103EC800EDD7040E0001606F090E0001606501D096
:103ED800120000016051010D000EF324D96E070E87
:103EE800F420DA6E030EDF160001602BEDD7000E0A
:103EF8000001686F010E676FE1EC1EF0CDEC1FF05A
:103F0800CEEC1FF04FEC1FF0CFEC1FF07DEC1EF055
:103F1800D7EC19F0D5EF19F060C0D9FF61C0DAFF0E
:103F2800100EDF6006D060C0D9FF61C0DAFFDF2A5B
:103F3800120060C0D9FF61C0DAFF100EDF6E1200F8
:103F480060C0D9FF61C0DAFFDF50D8B406D060C0C6
:103F5800D9FF61C0DAFFDF06120060C0D9FF61C077
:103F6800DAFF000EDF6E12000001606FACA2FED710
:103F780060C0ADFF12009EAAFED7AE501200000E20
:103F88009EBA010E12008AEF15F0120086EC15F0A9
:0B3F98001200120012001200120010B4
:020000040020DA
:08000000FFFFFFFFFFFFFFFF00
:020000040030CA
:0E0000002308183CFFD1A0FF00000000000004
:00000001FF
