:04330000D5EF19F0FC
:0E3308004582FACF24F0FBCF25F0EAEF1DF04E
:103318004580D8CF32F0E8CF33F0E0CF34F0FACFA1
:1033280035F0FBCF36F0E9CF37F0EACF38F0E1CF10
:1033380039F0E2CF3AF0D9CF3BF0DACF3CF0F3CF17
:103348003DF0F4CF3EF0F6CF3FF0F7CF40F0F8CFA6
:1033580041F0F5CF42F08CEF15F042C0F5FF41C0C7
:10336800F8FF40C0F7FF3FC0F6FF3EC0F4FF3DC086
:10337800F3FF3CC0DAFF3BC0D9FF3AC0E2FF39C0D7
:10338800E1FF38C0EAFF37C0E9FF36C0FBFF35C0B0
:10339800FAFF34C0E0FF33C0E8FF32C0D8FF4590E1
:1033A800100047EF1FF0A4EC1EF060C086F061C06B
:1033B80087F062C088F063C089F0A4EC1EF060C09A
:1033C8008AF061C08BF062C08CF063C08DF00F0E84
:1033D8000001976F080E086E000E00019A6F000E2C
:1033E800076EEFEC1FF0F2EC1FF00001986F000E73
:1033F8000001846F000E00018E6F000E8F6F000EAB
:10340800906F000E916F000E0001926F000E936F87
:10341800000E946F000E956F000E0001806F000E75
:10342800816F000E826F000E836F000E0001856FA2
:10343800F2EC1FF000017C6F400E00017C6103D0AC
:10344800010E0001A46FC00E00016E6F120E6F6FA7
:10345800000E706F000E716FB7EC1BF00009D8A456
:1034680009D0000E0001606F010E0001616F000EAF
:103478002BEC1EF0A4EC1EF0000160510001865DEB
:10348800000161510001875900016251000188590A
:103498000001635100018959D8B09ED0A4EC1EF0F8
:1034A800E80E000160250001866F030E000161210E
:1034B8000001876F000E000162210001886F000E75
:1034C800000163210001896F0F0E0001606F9AC02F
:1034D80061F0000E2BEC1EF00F0E0001606F9AC019
:1034E80061F0010E2BEC1EF00E0E0001606F9AC009
:1034F80061F0000E2BEC1EF00E0E0001606F9AC0FA
:1035080061F0010E2BEC1EF00001A651D8B404D0D6
:1035180000019A29010B01D0010E00019A6F0001E8
:103528009707000197AF11D0A60E0001606F000E3B
:103538000001616FCCEC1FF00001A451D8B402D097
:10354800070E01D00F0E0001976F0001985100017E
:10355800606F616B626B636B000EDDEC1EF0000E3A
:103568000001966F000191510001901100018F1127
:1035780005E1290E00018E5DD8A00FD000019551FC
:10358800000194110001931105E1290E0001925DDB
:10359800D8A003D0010E0001966F96C0A5F00001D7
:1035A800A451D8B407D0010E00018027000E812352
:1035B80082238323000E0001606F000E0001616FFB
:1035C800000E2BEC1EF0000E0001606F000E0001D3
:1035D800616F010E2BEC1EF0F2EC1FF00001986FEA
:1035E800EBEC1FF00009D8B4A4D0E7EC1FF0000101
:1035F800996F690E00019919D8B40AD0680E0001B4
:103608009919D8B405D06D0E00019919D8A491D094
:10361800000E0001606F010E0001616F010E2BECBE
:103628001EF0A4EC1EF0C80E00018A2500017C6F74
:10363800000E00018B2100017D6F000E00018C211E
:1036480000017E6F000E00018D2100017F6F0001D7
:10365800605100017C5D0001615100017D5900014C
:10366800625100017E590001635100017F59D8B0B1
:1036780060D0A60E0001606F000E0001616FB8EC0B
:103688001FF0010E00019227000E93239423952327
:10369800000198510001606F616B626B636B690E8A
:1036A80000019919D8A402D0010E01D0000EDDEC5A
:1036B8001EF03FD0F8EC1FF01200080E0001606FFA
:1036C800000E0001616FB8EC1FF044D0080E000135
:1036D800606F000E0001616FCCEC1FF03BD0000161
:1036E800A651D8B437D00001A451D8B404D0690E7B
:1036F800E0EC1FF003D0680EE0EC1FF0A4EC1EF025
:1037080060C08AF061C08BF062C08CF063C08DF03D
:10371800010E00018E27000E8F2390239123000EA7
:103728000001606F010E0001616F000E2BEC1EF0AE
:1037380011D02DEC1FF0010AD8B4BFD7030AD8B4B2
:1037480009D0010AD8B4CBD7070AD8B4BFD7010A21
:10375800D8B4B0D7A6C067F0A4C068F00001A551DE
:1037680060EC1FF087D66EC072F06FC073F070C047
:1037780074F071C075F0060ED89000017237733777
:1037880074377537E82EF8D70001721F731F741F3E
:10379800751F722B000E732374237523000E00010E
:1037A80072250001606F6C0E000173210001616FCA
:1037B800DC0E000174210001626F020E0001752108
:1037C8000001636F6EC076F06FC077F070C078F05C
:1037D80071C079F0060ED8900001763777377837C0
:1037E8007937E82EF8D776C064F077C065F078C0EE
:1037F80066F079C067F068EC1CF060C07AF061C0D0
:103808007BF000017B05D8A04FD06EC072F06FC06E
:1038180073F070C074F071C075F0040ED890000198
:103828007237733774377537E82EF8D70001721F6F
:10383800731F741F751F722B000E73237423752357
:10384800000E000172250001606F6C0E00017321EB
:103858000001616FDC0E000174210001626F020E2D
:10386800000175210001636F6EC076F06FC077F0BC
:1038780070C078F071C079F0040ED89000017637E6
:10388800773778377937E82EF8D776C064F077C07D
:1038980065F078C066F079C067F068EC1CF060C02D
:1038A8007AF061C07BF0AC8400017B05D8B00AD007
:1038B8007AC0AFFFAC98AB8E948E948CAB88AC8AF0
:1038C800010E1200000E1200000E0001696F0001C7
:1038D80067AF0CD00001671F661F651F646D000E7F
:1038E800652366236723010E0001696F000163AF3A
:1038F8000CD00001631F621F611F606D000E612301
:1039080062236323010E0001691B000E00016A6F28
:10391800000E6B6F000E6C6F000E6D6F000164512E
:10392800000165110001661100016711D8B442D089
:10393800010E0001686F08D00001D8906437653720
:10394800663767370001682B000167AFF5D70001BC
:10395800D8906A376B376C376D37000164510001B6
:10396800605D000165510001615900016651000167
:1039780062590001675100016359D8A012D00001B3
:1039880064510001605F000165510001615B000145
:1039980066510001625B000167510001635B000131
:1039A8006A810001D8906733663365336433000158
:1039B800682FCDD7000169510001D8B409D00001A2
:1039C8006D1F6C1F6B1F6A6D000E6B236C236D23BC
:1039D8006AC060F06BC061F06CC062F06DC063F0EB
:1039E8001200040E0001606F00016051010D000E0D
:1039F800F324D96E070EF420DA6E300EDF120001C0
:103A0800602B00016051010D000EF324D96E070EE2
:103A1800F420DA6E300EDF120001602B00016051D5
:103A2800010D000EF324D96E070EF420DA6EFC0E99
:103A3800DF120001602B00016051010D000EF3241C
:103A4800D96E070EF420DA6EFC0EDF120001602B2F
:103A580000016051010D000EF324D96E070EF42009
:103A6800DA6E300EDF120001602B00016051010D8B
:103A7800000EF324D96E070EF420DA6E300EDF1232
:103A88000001602B1200040E0001606F00016051FC
:103A9800010D000EF324D96E070EF420DA6E840EA1
:103AA800DF120001602B00016051010D000EF324AC
:103AB800D96E070EF420DA6E480EDF120001602B73
:103AC80000016051010D000EF324D96E070EF42099
:103AD800DA6E300EDF120001602B00016051010D1B
:103AE800000EF324D96E070EF420DA6E300EDF12C2
:103AF8000001602B00016051010D000EF324D96E06
:103B0800070EF420DA6E480EDF120001602B000168
:103B18006051010D000EF324D96E070EF420DA6E01
:103B2800840EDF120001602B12000001656F100E79
:103B38000001656503D0100E0001656F000E0001DD
:103B4800666F0DD000016651010D000EF324D96E89
:103B5800070EF420DA6EFE0EDF160001662B000158
:103B680065510001606F616B0001601F611F604B50
:103B7800612B100E00016027000E612300016651C1
:103B88000001626F636B000160510001625D00011A
:103B98006351800A0001646F00016151800A0001CD
:103BA8006459D8A0CFD70F0E0001666501D0120066
:103BB80000016651010D000EF324D96E070EF420A2
:103BC800DA6E000EDB800001662BEDD7E9CF26F018
:103BD800EACF27F0E1CF28F0E2CF29F0D9CF2AF0B9
:103BE800DACF2BF0F3CF2CF0F4CF2DF0F6CF2EF068
:103BF800F7CF2FF0F8CF30F0F5CF31F0F2A407D09F
:103C0800010E0001A027000EA123A223A32384EF05
:103C180015F031C0F5FF30C0F8FF2FC0F7FF2EC0F8
:103C2800F6FF2DC0F4FF2CC0F3FF2BC0DAFF2AC02B
:103C3800D9FF29C0E2FF28C0E1FF27C0EAFF26C05C
:103C4800E9FF25C0FBFF24C0FAFF459211000001DF
:103C5800646F0001645100080001626F070E0001E3
:103C68006227010E0001636F0001622B03D000017F
:103C7800D89063370001622FFAD700016351000121
:103C8800656F00016105D8A40DD000016051010DD8
:103C9800000EF324D96E070EF420DA6E0001655188
:103CA800DF12120000016551FF0A0001626F000176
:103CB8006051010D000EF324D96E070EF420DA6E60
:103CC80000016251DF161200000E0001656F000E40
:103CD800646F0001625100016311D8B42CD0010E49
:103CE8000001666F06D00001D89062376337000183
:103CF800662B000163AFF7D70001D89064376537AA
:103D0800000162510001605D0001635100016159C9
:103D1800D8A00AD0000162510001605F0001635120
:103D28000001615B000164810001D8906333623354
:103D38000001662FE1D764C060F065C061F0120031
:103D4800A0C064F0A1C065F0A2C066F0A3C067F08F
:103D5800030E06D00001D8906733663365336433A9
:103D6800E82EF8D7A0C068F0A1C069F0A2C06AF038
:103D7800A3C06BF00001D8906B336A3369336833A2
:103D880000016451000168250001606F0001655160
:103D9800000169210001616F0001665100016A217B
:103DA8000001626F0001675100016B210001636F20
:103DB80012000001646F000164510001D8B41200C0
:103DC80000016351000162110001611109E10C0E4B
:103DD8000001605DD8B004D00001A551D8B410D05E
:103DE8000001635100016211000161110DE1060E2D
:103DF8000001605DD8B012000001A505D8A412002A
:103E0800010E0001A46F1200120067C060F068C0C4
:103E180061F0000E0001636F0A0E626F68EC1EF01D
:103E280060C067F061C068F00DD09C0E0001696F3A
:103E3800D70EE82EFED7692FFCD700F000016707E0
:103E4800D8A068070001675100016811D8B41200B2
:103E5800ECD700C060F0000E006E000160A302D035
:103E6800010E1200000160A902D0040E1200000128
:103E780060A502D0020E1200000160A702D0030E56
:103E88001200000E1200F20EF66E3F0EF76E000ED4
:103E9800F86E0900F5CFA6F00001A56BA46BA36B23
:103EA800A26BA16BA06B446A436A45904592000ED1
:103EB800F86E0001A3EF1FF00001696F8DEC1FF091
:103EC800000169510001D8A4F5EC1CF0000168510B
:103ED8000001D8A447EC1DF00001675199EC1DF0D2
:103EE800F7EC1FF01200000E0001606F0F0E0001CA
:103EF800606501D0120000016051010D000EF3242D
:103F0800D96E070EF420DA6E000EDF6E0001602B0A
:103F1800EDD7040E0001606F090E0001606501D045
:103F2800120000016051010D000EF324D96E070E36
:103F3800F420DA6E030EDF160001602BEDD7000EB9
:103F48000001686F010E676F09EC1FF0F5EC1FF0B8
:103F5800F6EC1FF077EC1FF0F7EC1FF0A4EC1EF066
:103F6800D7EC19F0D5EF19F060C0D9FF61C0DAFFBE
:103F7800100EDF6006D060C0D9FF61C0DAFFDF2A0B
:103F8800120060C0D9FF61C0DAFF100EDF6E1200A8
:103F980060C0D9FF61C0DAFFDF50D8B406D060C076
:103FA800D9FF61C0DAFFDF06120060C0D9FF61C027
:103FB800DAFF000EDF6E12000001606FACA2FED7C0
:103FC80060C0ADFF12009EAAFED7AE501200000ED0
:103FD8009EBA010E12008AEF15F0120086EC15F059
:0B3FE800120012001200120012001064
:020000040020DA
:08000000FFFFFFFFFFFFFFFF00
:020000040030CA
:0E0000002308183CFFD1A0FF00000000000004
:00000001FF
